:020000040800F2
:100000003853002035030008C71F0008C71E00082A
:10001000C51F0008E90800081D26000800000000B0
:100020000000000000000000000000007502000851
:10003000A909000800000000D1020008D11F000833
:100040004F0300084F0300084F0300084F03000848
:100050004F0300084F0300084F0300084F03000838
:100060004F0300084F0300084F0300084F03000828
:100070004F0300084F0300084F0300084F03000818
:100080004F0300084F0300084F0300084F03000808
:100090004F0300084F0300084F0300084F030008F8
:1000A0004F0300089D2000084F0300084F0300087D
:1000B0004F0300084F0300084F0300084F030008D8
:1000C0004F0300084F0300084F0300084F030008C8
:1000D0004F0300084F0300084F0300084F030008B8
:1000E0004F0300084F0300084F0300084F030008A8
:1000F0004F0300084F0300084F0300084F03000898
:100100004F0300084F0300084F0300084F03000887
:100110004F0300084F0300084F0300084F03000877
:100120004F030008ED0800084F0300084F030008C4
:100130004F03000800000000000000004F0300080B
:100140004F0300084F0300084F0300084F03000847
:100150004F030008F90800084F030008C1250008F4
:100160004F0300084F0300084F0300084F03000827
:100170004F0300084F0300084F0300080000000071
:10018000000000004F030008000000000000000015
:100190004F03000800000000000000004F030008AB
:1001A0000000000000000000000000004F030008F5
:1001B0004F0300084F0300084F0300084F030008D7
:1001C0004F03000800F002F800F044F80AA090E89D
:1001D000000C82448344AAF10107DA4501D100F002
:1001E00039F8AFF2090EBAE80F0013F0010F18BF8B
:1001F000FB1A43F0010318478C410000AC4100009A
:10020000103A24BF78C878C1FAD8520724BF30C842
:1002100030C144BF04680C60704700000023002414
:1002200000250026103A28BF78C1FBD8520728BF06
:1002300030C148BF0B607047642900F07D8173298D
:1002400000F09982002070471FB504F02BF81FBD05
:1002500010B510BD00F016FB1146FFF7F5FF02F0D8
:10026000FBF900F034FB03B4FFF7F2FF03BC02F02C
:10027000E6F900002C4B19680868B0E8F04F80F3ED
:100280000988BFF36F8F4FF0000080F3118870472B
:100290000000000008480068006880F308884FF0FC
:1002A000000080F3148862B661B6BFF34F8FBFF3CE
:1002B0006F8F00DF00BF00BF08ED00E0DFF80C002B
:1002C000016841F470010160704700BF88ED00E0F3
:1002D000EFF30980BFF36F8F134B1A681EF0100FF6
:1002E00008BF20ED108A20E9F04F106009B44FF0EC
:1002F000500080F31188BFF34F8FBFF36F8F03F06F
:1003000099F94FF0000080F3118809BC196808685A
:10031000B0E8F04F1EF0100F08BFB0EC108A80F369
:100320000988BFF36F8F704734000020EFF305801A
:10033000704700000948804709480047FEE7FEE78C
:10034000FEE7FEE7FEE7FEE7FEE7FEE7FEE7FEE785
:1003500004480549054A064B704700008D200008F7
:10036000C5010008384D002038530020384F0020C8
:10037000384F0020704753EA020C00F069802DE9E5
:10038000F04B4FF00006002B1FBFB3FA83F503FAC2
:1003900005F424FA05F65E4012BF1643B2FA82F560
:1003A00002FA05F4C5F120051EBF22FA05FC44EA55
:1003B0000C04203556EA044C4FEA144418BF641C60
:1003C0004FF000084FF00009904271EB030C39D355
:1003D000002919BFB1FA81F701FA07F6B0FA80F7E0
:1003E00000FA07F6C7F120071EBF20FA07FC46EA0D
:1003F0000C062037B6FBF4FCA7EB0507103F07F00F
:100400001F0BCBF120060CFA0BFB2CFA06F644BFAF
:10041000B3460026202FA4BF5E464FF0000B5BEAD8
:10042000060C08BF4FF0010B19EB0B09ABFB027C6C
:1004300048EB0608C01B06FB02CC0BFB03CC71EBA0
:100440000C01C1E70B46024641464846BDE8F08B29
:1004500013B54FF000004FF00001AFF30080BDE88E
:100460001C4070470FB4044910B503AA029800F06D
:1004700087F910BC5DF814FB140000202DE9F04151
:100480000E460446002020622046E168884730B3CB
:10049000252805D0D4E901219047206A401CF2E7C5
:1004A000E168204600278847050018D0A5F14100E3
:1004B000192802D820354FF40067324629462046D5
:1004C0002760FFF7B9FE40B1012804D0F61D26F0E1
:1004D00007060836D8E7361DD6E72846DAE7206A49
:1004E000BDE8F08170B50C460546012A05D0287894
:1004F000800600D5EA69002302E0012305E05B1CC9
:10050000934202D2E05C0028F9D1A869E618C01A2B
:10051000A861286A184428622846AFF3008004E0E6
:10052000D5E9012114F8010B9047B442F8D32846CD
:10053000AFF3008070BD00002DE9F04106460024B5
:1005400010687529314616A510D0AFF30080002839
:1005500002DA404213A507E031688A0701D512A5E7
:1005600002E0490704D511A5012401E0AFF30080A2
:1005700000210A2206F1240709E0B0FBF2FCB0FBDF
:10058000F2F302FB1C00303078541846491C002856
:10059000F3D123462A463046BDE8F04100F080B84A
:1005A000000000002D0000002B00000020000000D3
:1005B000032A40F2308010F0030C00F0158011F88F
:1005C000013BBCF1020F624498BF11F801CB00F867
:1005D000013B38BF11F8013BA2F1040298BF00F8BB
:1005E00001CB38BF00F8013B11F0030300F0DA80C3
:1005F000083AC0F0088051F8043B083A51F804CB9F
:10060000A0E80810F5E7121D5CBF51F8043B40F864
:10061000043BAFF30080D20724BF11F8013B11F86F
:1006200001CB48BF11F8012B24BF00F8013B00F8B3
:1006300001CB48BF00F8012B704702F0FF0343EAEB
:10064000032242EA024200F0E1B84FF0000200B596
:10065000134694469646203922BFA0E80C50A0E8E5
:100660000C50B1F12001BFF4F7AF090728BFA0E893
:100670000C5048BF0CC05DF804EB890028BF40F85F
:10068000042B08BF704748BF20F8022B11F0804FA1
:1006900018BF00F8012B70477047704770477047CC
:1006A0002DE9F0470D4699469246044600F124088C
:1006B0000168880604D5E06921F01001216000E09E
:1006C0000120A84201DD471B00E00027A1697A193B
:1006D00002EB0900081AA0612078C00602D4204667
:1006E000AFF30080002608E0D4E901211AF80600E3
:1006F0009047206A401C761C20624E45F4DB20782F
:10070000C0060AD52046AFF3008006E0D4E90121F7
:1007100030209047206A401C2062381EA7F1010754
:10072000F4DC07E0D4E9012118F805009047206ABD
:10073000401C2062281EA5F10105F3DC2046AFF322
:1007400000802078000602D50220BDE8F087012055
:10075000FBE710B5436913B1AFF3008001E0FFF789
:10076000C1FE012010BD127800F124010A700022A0
:100770004A700122EDE711684FF0FF32E9E700000F
:10078000074B70B50D467B4400F065F804462846DB
:1007900000F074F810B14FF0FF3070BD204670BD0E
:1007A000B71E000010B5203AC0F00B80B1E8185019
:1007B000203AA0E81850B1E81850A0E81850BFF44B
:1007C000F5AF5FEA027C24BFB1E81850A0E81850EA
:1007D00044BF18C918C0BDE810405FEA827C24BF3E
:1007E00051F8043B40F8043B08BF7047D20728BFCC
:1007F00031F8023B48BF11F8012B28BF20F8023B1B
:1008000048BF00F8012B70474FF000020429C0F0E8
:10081000128010F0030C3FF41AAFCCF1040CBCF1C1
:10082000020F18BF00F8012BA8BF20F8022BA1EB84
:100830000C01FFF70CBF5FEAC17C24BF00F8012B5D
:1008400000F8012B48BF00F8012B704701694A1CD2
:1008500002610878704700B58FB0CDE90131002101
:10086000059105497944CDE9031011466846FFF723
:1008700005FE0FB000BD0000E5FFFFFF007B00F0AC
:1008800080007047754600F02BF8AE4605006946BB
:10089000534620F00700854618B020B5FFF758FDF5
:1008A000BDE820404FF000064FF000074FF0000871
:1008B0004FF0000B21F00701AC46ACE8C009ACE8F2
:1008C000C009ACE8C009ACE8C0098D46704710B556
:1008D0000446AFF300802046BDE81040FFF7C3BCDC
:1008E00000487047D84C0020FEE70000014800F0A7
:1008F000B9B80000FC000020014800F0B3B80000C7
:100900005C01002001681823CAB2103AB2FBF3F26E
:10091000054B6FF30901032A9B5CC36500D9091DD0
:1009200081650846704700003443000810B5014651
:1009300000208B698A6A4FF0C07453B1B3F5005F31
:1009400015D072B1012A0CD0022A0AD0032A09D18B
:1009500004E01AB1012A06D0022A03D1C96AC901EA
:1009600000D5012010BDC96AA142FAD010BD002AED
:10097000F7D0012AF2D0022AF3D0032AF3D010BD17
:1009800030B50468256825F4802525600468636017
:100990008368402B036803D099600068C26030BD53
:1009A0009A600068C16030BD704772B6FEE72DE9FD
:1009B000F0410446876D00F0B5FA064694F835001C
:1009C0000025022806D08020606584F8345001207C
:1009D000BDE8F0812068016821F0160101602068FF
:1009E000416921F080014161206C08B9A06C20B1FF
:1009F0002068016821F0080101602068016821F089
:100A0000010101600CE000F08DFA801B052807D978
:100A100020206065032084F8350084F83450D7E73F
:100A200020680068C007EED194F85C103F20884031
:100A3000B860012084F8350084F834500020C7E7FE
:100A400090F83510022903D08021416501207047BC
:100A5000052180F835100068016821F0010101606E
:100A6000002070472DE9F84304464FF00009CDF807
:100A7000009063484FF41651A56D0068B0FBF1F784
:100A80002E6894F85C10082000FA01F131420FD072
:100A900021680A6852070BD50A6822F004020A602E
:100AA00094F85C108840A860606D40F001006065BB
:100AB00094F85C104FF0010808FA01F0304208D0B9
:100AC00021684969090604D5A860606D40F00200FC
:100AD000606594F85C1004208840304208D021689A
:100AE0000968890704D5A860606D40F0040060655E
:100AF00094F85C1010208840304218D021680968B2
:100B0000090714D5A86020680168490304D5006866
:100B1000000308D5A16C07E00168C90503D401688A
:100B200021F008010160216C09B12046884794F842
:100B30005C1020208840304231D021680968C90605
:100B40002DD5A86094F8350005282068016806D0E6
:100B5000490347D5006800031DD4616C1CE021F0F7
:100B6000160101602068416921F080014161206C1B
:100B700008B9A06C20B12068016821F0080101606B
:100B800094F85C103F208840A86084F8358084F891
:100B90003490216D1FE0E16B09B120468847606DFC
:100BA00000282BD0606DC00714D0052084F83500D4
:100BB0002068016821F0010101600098401C00904C
:100BC000B84203D820680068C007F6D184F83580A1
:100BD00084F83490E16C002910D001B02046BDE8C3
:100BE000F04308470168C905D5D4016821F0100118
:100BF000016084F8358084F83490CCE7BDE8F88350
:100C0000300000202DE9F041044600F08BF9064643
:100C10005CB1022084F83500002584F83450206847
:100C2000016821F0010101600DE00120BDE8F081C3
:100C300000F078F9801B052805D920206065032085
:100C400084F83500F2E720680068C007F0D1226818
:100C5000116820480140D4E901031843D4E9033660
:100C60003343184363691843A3691843E36918437E
:100C7000236A18430843616A042903D1D4E90B139A
:100C800019430843106020684069666A20F0070134
:100C900030460E43012704280CD1A06A0643E06ABF
:100CA00040B12046FFF742FE20B14020606584F845
:100CB0003570BAE7206846612046FFF723FE94F8B6
:100CC0005C203F2191408160656584F8357000208B
:100CD000ACE700003F8010F02DE9F0410446866D3E
:100CE00090F83400002501280DD0012084F834004C
:100CF00094F835700020012F07D084F834000225C5
:100D00002846BDE8F0810220FBE7022784F8357011
:100D100060652046FFF734FE94F85C103F20884061
:100D2000B0602068016841F016010160206C20B1BC
:100D30002068016841F0080101602068016841F005
:100D400001010160DCE700002DE9F84FDFF8ACA1FC
:100D50000022012403254FF00F090AF1040BAAF128
:100D6000040E00BF0B6804FA02F63340B3426ED1A2
:100D70000F7907F00307012F01D0022F16D18768E2
:100D80004FEA420805FA08FC27EA0C07D1F80CC024
:100D90000CFA08FC4CEA070CC0F808C04768B743D7
:100DA0000E79C6F3001696403E4346600E79F64330
:100DB000B6070AD0C6684FEA420C05FA0CF7BE43E4
:100DC0008F6807FA0CF73743C7600E7906F0030601
:100DD000022E10D1D60800EB8608D8F820605707FD
:100DE0004FEAD76C09FA0CF7BE430F6907FA0CF704
:100DF0003743C8F8207006684FEA420C05FA0CF732
:100E0000BE430F7907F0030707FA0CF73743076073
:100E10004E6816F4403F6BD0394E376847F4804730
:100E20003760366822F0030706F480460096354E98
:100E300007EB060CDCF8086897074FEA177809FA01
:100E400008F7BE43304FB84202D100271FE04FE001
:100E50002E4FB84201D1012719E02D4FB84201D1E0
:100E6000022714E02B4FB84201D103270FE02A4F8D
:100E7000B84201D104270AE0284FB84201D1052722
:100E800005E0274FB84201D1062700E0072707FAFF
:100E900008F73743CCF80878DAF800605746D1F8FD
:100EA00004C09E435FEACC2C00D51E433E60DBF8B5
:100EB00000605F46D1F804C09E435FEA8C2C00D5E9
:100EC0001E433E60DEF800607746D1F804C09E43C2
:100ED0005FEA8C3C00D51E433E60084F083F3E68E9
:100EE000D1F804C09E435FEACC3C00D51E433E606F
:100EF000521C102AFFF436AFBDE8F88F083C0140C1
:100F0000443802400030014000000240000402402A
:100F100000080240000C0240001002400014024091
:100F2000001802400148806870470000240000203B
:100F300002488168027811448160704724000020D3
:100F40000B4810B5016841F400710160016841F47B
:100F500080610160016841F480710160032000F04C
:100F600099F80F2000F006F800F04AF8002010BDB4
:100F7000003C024030B505461C4887B0002401689B
:100F800041F001010160006806A900F00100009035
:100F900001A800F063F900F091F915494000B0FB99
:100FA000F1F11548134A491E026040F2E732C0E9E8
:100FB0000324C0E90114846100F0AAFB040012D1EB
:100FC0000D4800F0D3FB04000DD1192000F034F8D7
:100FD000102D07D200222946192000F03BF80748BF
:100FE000056000E0012407B0204630BD44380240CF
:100FF00040420F0000000140BC01002028000020FA
:101000000C4882B0016841F480410160006800F43E
:10101000804000900748001F016841F08051016046
:101020000068002200F0805000900F21901E02B056
:1010300000F010B844380240002809DB00F01F021D
:10104000012191404009800000F1E020C0F800112A
:1010500070470000F0B40E4B1B680C46C3F302232C
:10106000C3F10705042D00D90425191D072901D254
:10107000002300E0DB1E012606FA05F1491E21408F
:1010800099409E40761E16403143F0BC01F0C7BA2D
:101090000CED00E0064900F0070208684FF6FF0378
:1010A000184040EA0220034A1043086070470000DD
:1010B0000CED00E00000FA052DE9F843174801683F
:1010C00041F0805101600068154F00F0805001260A
:1010D00000903E64FFF726FF05464FF47A78114CE6
:1010E00005E000BFFFF71EFF401B40450DD86068BC
:1010F000C003F7D57E64FFF715FF0546464607E0B7
:10110000FFF710FF401BB04202D90320BDE8F8836F
:1011100060688003F4D50020F8E700004038024002
:1011200000000E42007000402DE9F0470E46050019
:1011300065D0DFF81481D8F80000F7B200F00F0096
:10114000B04207D288F80070D8F8000000F00F0015
:10115000B04254D128683D4C810712D5400703D5D1
:10116000206840F4E05020602878000703D520680C
:1011700040F4604020602068A96820F0F000084337
:1011800020602878C0072DD03049686808390128C8
:1011900012D0022813D0032811D00968890700292A
:1011A0002DDA216821F0030101432160FFF7BAFE27
:1011B000814641F2883A0EE009688903EFE7096841
:1011C0008901ECE7FFF7AEFEA0EB0901514502D91A
:1011D0000320BDE8F0872068696800F00C00B0EBE0
:1011E000810FEFD1D8F80010404601F00F01B14255
:1011F00007D90770006800F00F00B04201D001204D
:10120000E7E72878400705D52068E96820F4E05032
:10121000084320602878000706D52068296920F453
:10122000604040EAC100206000F058F82168084A98
:10123000C1F30311515CC8400649086006480068C4
:10124000FFF798FE0020C4E7003C02400838024047
:101250003C43000830000020280000200F220260DC
:101260000C4A136803F003034360136803F0F003B0
:101270008360136803F4E053C36012684FF4E053D3
:1012800003EAD20202610448006800F00F0008601F
:101290007047000008380240003C024004480549FD
:1012A00000680968044AC1F38221515CC840704754
:1012B00030000020083802404C430008044805492B
:1012C00000680968044AC1F34231515CC840704764
:1012D00030000020083802404C430008224810B576
:1012E000006810F00C02214815D02149042A11D0C1
:1012F0001D4C241F082A0FD00C2A0CD12268236809
:1013000002F03F025B0221D52068C0F38810A0FBE9
:10131000010120E0084610BD2268236802F03F0268
:101320005B0205D52068C0F38810A0FB010104E032
:101330002168C1F38811A1FB00010023FFF71BF80E
:101340002168C1F30141491C49000AE02168C1F349
:101350008811A1FB00010023FFF70DF82168C1F3FC
:101360000271B0FBF1F010BD083802400024F40017
:1013700040787D012DE9F84F04007DD0DFF878B387
:101380002078ABF10407C007A7F1040550D0DBF8C3
:1013900000105846C1F3810101290FD00168C1F343
:1013A0008101022902D13968490207D40068C0F3DB
:1013B0008100032809D13868400206D528688003D7
:1013C00036D560680028D8D032E06068B0F5803F3C
:1013D00010D0B0F5A02F286810D020F480302860FD
:1013E000286820F4802028606068A0B1FFF79AFD8B
:1013F00006460CE0286840F48030F4E740F4802092
:101400002860F7E7FFF78EFD801B642876D82868F0
:101410008003F7D50CE0FFF785FD064605E000BF29
:10142000FFF780FD801B6428F0D828688003F7D47C
:101430002078DFF8C89280074FF0000A44D5DBF827
:101440000010584611F00C0F0FD00168C1F3810154
:10145000022902D13968490207D50068C0F381002A
:1014600003280AD13868400207D42868800715D5B8
:10147000E068012800D111E03AE1E068B0B1012054
:10148000C9F80000FFF74EFD064604E0FFF74AFDED
:10149000801B0228BAD828688007F7D528682169F8
:1014A00020F0F80040EAC10028600DE0C9F800A073
:1014B000FFF738FD064604E0FFF734FD801B0228E5
:1014C0001CD828688007F7D42078000727D5DFF8D4
:1014D00028828B48616908F16C0881B101210160A3
:1014E000FFF720FD064604E0FFF71CFD801B0228E5
:1014F00004D8D8F800008007F6D510E089E0C0F8DD
:1015000000A0FFF70FFD064605E000BFFFF70AFD4C
:10151000801B02287DD8D8F800008007F6D42078F8
:10152000400769D574484FF0000838300068C000A3
:101530000BD471483830016841F080510160006877
:101540004FF0010800F0805000906E4E3068C005EA
:1015500011D4306840F480703060FFF7E3FC0090F5
:1015600006E000BFFFF7DEFC0099401A022850D8C1
:101570003068C005F6D5604EA068683601280FD0E7
:101580000528306810D020F001003060306820F06D
:1015900004003060A068B8B1FFF7C4FC00900FE011
:1015A000306840F00100F4E740F004003060F7E7F5
:1015B000FFF7B8FC0099411A41F28830814264D8A3
:1015C00030688007F4D50EE0FFF7ACFC009007E030
:1015D000FFF7A8FC0099411A41F28830814254D8A3
:1015E00030688007F4D4B8F1000F05D04248383095
:1015F000016821F080510160A069A8B3DBF80010F8
:10160000C1F38101022947D00228C9F860A005D0A2
:1016100000E03AE0FFF786FC044639E0FFF782FC81
:10162000064604E0FFF77EFC801B02282DD82868C0
:101630008001F7D4F4E907010843E168324A490818
:1016400002EB0141A26841EA82110843217C40EA91
:101650000160217D40EA017038600120C9F8600016
:10166000FFF760FC044606E044E000BFFFF75AFCC9
:10167000001B022809D828688001F7D53AE000BF8E
:10168000FFF750FC001B022802D90320BDE8F88FA9
:1016900028688001F4D42DE00128F7D03868E26989
:1016A00000F48001914223D1226A00F03F0191426F
:1016B0001ED147F6C071626A0140B1EB821F17D19B
:1016C000A26A4FF0FF3300F4403103EB5202B1EB5A
:1016D000024F0DD194F82C2000F07061B1EB026F35
:1016E00006D194F8301000F0E040B0EB017F01D05B
:1016F0000120CBE70020C9E708380240000047423C
:10170000800E4742007000400000FFFF70477047A6
:1017100010B5040003D094F83D0010B107E001209B
:1017200010BD002084F83C00204600F01EF8022086
:1017300084F83D00211D206800F0B6FC012084F8EB
:10174000460084F83E0084F83F0084F8400084F8A6
:10175000410084F8420084F8430084F8440084F88F
:10176000450084F83D00002010BD704790F83D1002
:10177000012901D001207047022180F83D10016845
:10178000CA6842F00102CA6000681149884214D058
:10179000B0F1804F11D00F4988420ED00E498842D7
:1017A0000BD00E49884208D00D49884205D00D491A
:1017B000884202D00C49884204D1816801F00701B7
:1017C000062903D0016841F0010101600020704743
:1017D000000001400004004000080040000C0040F0
:1017E00000040140004001400018004070472DE90E
:1017F000F04104460068C66805694FF00007A90774
:1018000013D5B10711D5F91E016101202077206899
:1018100080698007204602D0FFF7E8FF04E000F06F
:101820007EF8204600F07CF82777680716D5700709
:1018300014D521686FF00400086102202077206829
:10184000806910F4407F204602D0FFF7CFFF04E00C
:1018500000F065F8204600F063F82777280715D5D3
:10186000300713D521686FF0080008610420207745
:101870002068C0698007204602D0FFF7B7FF04E068
:1018800000F04DF8204600F04BF82777E80616D513
:10189000F00614D521686FF0100008610820207749
:1018A0002068C06910F4407F204602D0FFF79EFFF9
:1018B00004E000F034F8204600F032F82777E8071B
:1018C00008D0F00706D021686FF0010008612046BB
:1018D00000F028F8280608D5300606D521686FF0F4
:1018E000800008612046FFF711FF680608D57006E2
:1018F00006D521686FF040000861204600F01CF812
:10190000A8060AD5B00608D521686FF02000086146
:101910002046BDE8F041FFF7FABEBDE8F081704710
:101920007047000000680349884201D1FFF700BBFF
:101930007047000000000140704738B5044690F839
:101940004200202801D0022038BD51B14AB1012007
:10195000206300206063204600F0A8FD216B012970
:1019600001D0012038BD21680A68496800912168CA
:101970000C3151E8002F42F0100241E80023002B07
:10198000F5D138BD70B50D4604460068114988424E
:101990001FD1204600F026F80F4A101F017842F8A8
:1019A000215081F0010101700C484FF4807200EB6E
:1019B00001212046FFF7C1FFE06B0068016821F0BC
:1019C00008010160064801210068BDE8704000F090
:1019D0009FBE70BD001401401C00002004020020C6
:1019E0001000002010B504460068406994F84110CA
:1019F000C0F3C010212911D180B12068143050E803
:101A0000001F21F0800140E80012002AF5D1A06BF0
:101A100008B1FEF7CCFF204600F053FC2068406977
:101A200094F84210C0F38010222911D180B12068AF
:101A3000143050E8001F21F0400140E80012002A55
:101A4000F5D1E06B08B1FEF7B2FF204600F012FCC2
:101A5000002010BD70470000F8B501680446086812
:101A6000CA684B6910F00F0F4FF0000559D003F012
:101A7000010602F49077374365D0C10705D0D10540
:101A800003D5616C41F001016164410705D5D907B7
:101A900003D0616C41F002016164810705D5D9076B
:101AA00003D0616C41F004016164010707D502F0C5
:101AB0002001314303D0616C41F008016164616C25
:101AC00000293AD0800604D5900602D5204600F0C1
:101AD00006FC20684069616CC0F38010090700D4DF
:101AE00060B3204600F0C6FB20684069400621D55F
:101AF0002068143050E8001F21F0400140E8001237
:101B0000002AF5D1E06BA8B172490165E06BFEF7E0
:101B100097FF002811D0E06B016D01B0BDE8F040E7
:101B2000084783060FD593060DD52046BDE8F8403B
:101B300000F0D5BB2046FFF78DFFF8BD2046FFF72C
:101B400089FF6564F8BD266B2023012E7ED1C60671
:101B50007CD5D6067AD508684868009048694FF069
:101B6000020640064DD5E26B106840684FF480775E
:101B70000004000C3AD0A18D814237D9E085D069AC
:101B8000B8422DD020680C3050E8001F21F480713D
:101B900040E80012002AF5D12068143050E8001FF8
:101BA00021F0010140E80012002AF5D1206814302C
:101BB00050E8001F21F0400140E80012002AF5D152
:101BC00084F84230256320680C3050E8001F21F073
:101BD000100140E80012002AF5D1E06BFEF7E7FEA5
:101BE0006663A08DE18D401A81B206E0A18D81422D
:101BF000A8D1D069B842A5D166632046FFF7C2FEDE
:101C0000F8BDA08DE18D401A81B2E08D0028F7D09B
:101C10000029F5D020680C3050E8002F22F4907293
:101C200040E80027002FF5D12068143050E8002F3D
:101C300022F0010240E80027002FF5D184F842305D
:101C4000256320680C3050E8002F00E006E022F009
:101C5000100240E80023002BF3D1CDE705062BD579
:101C6000150629D594F841002128C9D1A068B0F5FE
:101C7000805F01D12069B0B1206A411C21622168D6
:101C800000784860E08C401E0004000CE084B7D16E
:101C90002068C16821F08001C1602068C16841F0FE
:101CA0004001C160F8BD206A0088C0F308004860A8
:101CB000206A801C2062E5E74006F3D55006F1D586
:101CC000CA68204622F04002CA6084F8413000F021
:101CD000F9F8F8BD7921000870B5040004D094F833
:101CE0004100002510B106E0012070BD84F840508D
:101CF000204600F023F8242084F841002068C168C1
:101D000021F40051C160204600F04AFB20680169BF
:101D100021F4904101612068416921F02A0141616B
:101D20002068C16841F40051C1606564202084F8D6
:101D3000410084F842006563002070BD2DE9F04148
:101D400086B0064614216846FEF77FFC2F493068AE
:101D5000884257D12E480024016841F020010160DB
:101D6000006800F02000059029481438016841F00F
:101D7000040101600068694600F004000590C0207D
:101D800000900220CDE90104032003900820049074
:101D90002048FEF7D9FF214D1F484FF48068870582
:101DA0002860C5E90174C5E903486C61AC61EC6168
:101DB0002C6228466C62FEF725FF08B1FEF7F5FDA0
:101DC000F563AE63154D144860357830E5E80207D9
:101DD0004020A5E81101114845F814496030AC6174
:101DE000EC612C626C62FEF70DFF08B1FEF7DDFDC1
:101DF000B563002205214720AE63FFF72BF947208A
:101E0000FFF71AF906B0BDE8F081000000140140A8
:101E1000443802400008024028640240FC000020D0
:101E2000704770472DE9F843044690F84100984602
:101E300016460D46202802D00220BDE8F88385B161
:101E40007EB100206064212084F84100FFF76AF829
:101E5000A6848146E684A0682027B0F5805F02D082
:101E600003E00120E9E7206910B12E4600250EE0CD
:101E700000260CE08021204600F068FBA8B9C6B11E
:101E800016F8010B21684860E08C401EE084E08C6D
:101E90004B464FF00002CDF800800028EAD14FF009
:101EA0004001204600F052FB40B184F8417003200D
:101EB000C3E735F8020BC0F30800E3E784F841708C
:101EC0000020BAE77047FEE70D4808B5016841F405
:101ED000800101600068002200F48000009005216C
:101EE0003920FFF7B7F83920FFF7A6F800220521BF
:101EF0004520FFF7AFF8BDE808404520FFF79CB844
:101F00003038024010B50D4A00210D4800F08AFC1F
:101F10000C4C0A4A0021206024320B4800F082FC5D
:101F2000064A606048320021084800F07BFCA0604F
:101F300002486C3000F0D5FBE06010BDB8420008EC
:101F4000C91F0008040000207D260008CD250008D8
:101F50000D4808B5016841F080010160016801F099
:101F600080010091016841F004010160016801F005
:101F700004010091016841F001010160006800F076
:101F80000100009008BD0000303802400C4810B538
:101F90000A4901604FF4E1314160002181600C2267
:101FA000C160C0E904128161C161FFF795FE00289C
:101FB00003D0BDE81040FEF7F8BC10BD001401408E
:101FC000B4000020FEE7FEE7012000F07DFBFBE708
:101FD00010B54FF0E020006901F09AFF012803D00E
:101FE000BDE8104001F0C8BC10BD000030B593B092
:101FF00034216846FEF729FB14210DA8FEF725FBC6
:1020000020480025016841F080510160006800F01F
:10201000805012901C48016841F440410160006802
:10202000022400F4404012900120039010200490FC
:10203000009406940820CDE90750B420CDE90904A6
:102040000B9468460C94FFF795F908B172B6FEE759
:10205000FFF732F808B172B6FEE70DA90F2081E84C
:1020600031004FF4A05010904FF480501190052192
:102070000DA8FFF759F8002801D072B6FEE713B09B
:1020800030BD000040380240007000400248016846
:1020900041F470010160704788ED00E00148FFF7EE
:1020A000A6BB0000BC010020F0B50268274B284DFC
:1020B000284E294F294C4FF0804C984209D060455A
:1020C00007D0A84205D0B04203D0B84201D0A04208
:1020D00004D122F0700E4A6842EA0E0298421BD0E8
:1020E000604519D0A84217D0B04215D0B84213D0DD
:1020F000A04211D01A4DA8420ED01A4DA8420BD0C2
:10210000194DA84208D0194DA84205D0184DA84233
:1021100002D0184DA84203D122F44075CA682A4360
:102120004D6922F080022A438D68C5620D68856280
:10213000984201D0A04201D109690163016841F0D0
:1021400004010160012141610260F0BD0000014015
:102150000004004000080040000C00400004014062
:102160000040014000440140004801400018004088
:10217000001C00400020004010B5806B0021C1858C
:10218000FFF768FC10BD70B5846B2068406994F857
:102190004110C0F3C0100025212904D118B1E584F5
:1021A000204600F08EF82068406994F84210C0F391
:1021B0008010222904D118B1E585204600F05AF894
:1021C000606C40F0100060642046FFF743FC70BD77
:1021D00010B50146806B096809684FF00002C90517
:1021E0002ED4C28501680C3151E8003F23F480737E
:1021F00041E80034002CF5D10168143151E8003F6A
:1022000023F0010341E80034002CF5D101681431BA
:1022100051E8003F23F0400341E80034002CF5D1A1
:10222000202180F84210016B012909D101680C318D
:1022300051E8003F23F0100341E80034002CF5D1B1
:102240004263016B012902D0FFF7EAFD10BD818DC9
:10225000FFF798FB10BD10B5806B01214163016B46
:10226000012902D0FFF7DDFD10BD818D4908FFF780
:1022700089FB10BD01680C3151E8002F22F49072E7
:1022800041E80023002BF5D10168143151E8002FFB
:1022900022F0010241E80023002BF5D1016B012956
:1022A00009D101680C3151E8002F22F0100241E8F9
:1022B0000023002BF5D1202180F84210002101637A
:1022C000704701680C3151E8002F22F0C00241E84C
:1022D0000023002BF5D1202180F84110704708B56C
:1022E00090F84210222901D0022008BD82684FF4E4
:1022F00080539A4201D1016921B1816A9A421BD06F
:102300004AB10AE00268816A5268C2F308020A8090
:10231000816A891C08E0026972B10268526802F0A1
:102320007F020A70816A491C8162C18D491E0904BD
:10233000090CC18503D01BE002685268F1E701680F
:10234000CA6822F02002CA600168CA6822F480725A
:10235000CA6001684A6922F001024A61202180F8BE
:10236000421000214163026B012A03D0FFF758FDA0
:10237000002008BD016301680C3151E8002F22F0F4
:10238000100241E80023002BF5D101680A68D2064B
:1023900002D50A6849680091818DFFF7F3FAE7E7F3
:1023A00070B5044600680169E26821F440511143A8
:1023B00001612169A068E26908436169114308432A
:1023C0002168CA6849F20C639A430243CA602068D4
:1023D0004169A26921F4407111434161314920688A
:1023E000884202D03049884202D1FEF767FF01E0FF
:1023F000FEF754FFE2690023192164253226B2F565
:10240000004F626828D0A0FB0101930F9200FDF7F6
:10241000B2FF0146B0FBF5F06FF01802504301EB3C
:10242000800006EB0010B0FBF5F000F0F002B1FB0D
:10243000F5F002EB0012B1FBF5F06FF01803584312
:1024400001EB800006EB0010B0FBF5F000F00F0090
:1024500021681044886070BDA0FB010192185B41A7
:10246000FDF789FF0146B0FBF5F00201B1FBF5F085
:102470006FF01803584301EB800006EBC000B0FB7F
:10248000F5F000F0F80002EB4002B1FBF5F0584324
:1024900001EB800006EBC000B0FBF5F000F0070098
:1024A000D6E70000001001400014014038B58162F9
:1024B00004468285002013466064222284F842206C
:1024C000E56B1F4AEA63E56B1E4A2A64E56B1E4A08
:1024D000EA64E26B10650A462168E06B091DFEF7AD
:1024E000FBFB30B110206064202084F84200012002
:1024F00038BD2068016840680090206948B12068B4
:102500000C3050E8001F41F4807140E80012002AAE
:10251000F5D12068143050E8001F41F0010140E877
:102520000012002AF5D12068143050E8001F41F055
:10253000400140E80012002AF5D1002038BD00001B
:10254000D121000857220008872100082DE9F8430F
:10255000984617460D460446089E24E0701C22D07B
:10256000FEF7E0FCA0EB0800B0421AD8CEB120681C
:10257000C168490717D5802D15D0402D13D00168AB
:10258000C94309070FD40168002540680090204620
:10259000FFF770FE0820606484F840500120BDE819
:1025A000F8830320FBE72068006835EA000004D0C8
:1025B0000020B842D2D00020F1E70120F9E7000066
:1025C0000148FFF749BA0000B400002000F0C8FD40
:1025D0000F4D0E4C0F4F4FF0FF382E1D4FF47A79F0
:1025E000434600220121206800F0BCF80128F7D101
:1025F00028784B4680F0010036F820108AB207EBAD
:1026000000210548FFF70EFCEAE70000100000205B
:102610001800002004020020B4000020FEE7090793
:10262000090E002804DB00F1E02080F80014704758
:1026300000F00F0000F1E02080F8141D7047704793
:1026400013B56423012269460248FFF7EBFB0098AB
:102650001CBD0000B4000020FEF772FCFFF7C6FCB2
:10266000FFF776FCFFF730FCFFF790FC00F0ACF8CA
:10267000FFF748FC00F0BAF8FEE700004FF47A7468
:10268000064D204600F020F828780228F9D30D22C4
:10269000034904A0FDF7E6FEF3E700000000002078
:1026A000AE4200081B5B33326D5B25735D5B696E68
:1026B000666F5D282564293A206E6968616F0D0A8E
:1026C0001B5B306D0D0A000010B5EFF3058111B1F1
:1026D0006FF0050403E0002408B100F097FE2046E7
:1026E00010BD10B54FF00001EFF305826AB948B193
:1026F000D0E902202AB1202807D3104600F0DAFFE3
:1027000002E010B900F0C8FF0146084610BD000005
:1027100038B50C4610B1210E002902D06FF003002D
:1027200038BDEFF30581B1B1002100916A46214621
:1027300001F01CF860B1009920460029F0D0084A49
:102740004FF080511160BFF34F8FBFF36F8F38BDD3
:102750006FF0020038BD214600F0C2FF38BD000016
:1027600004ED00E0F8B51D4616460C4610B1210EEA
:10277000002902D06FF00300F8BDEFF3058111B11D
:102780006FF00500F8BDF10701D0012300E0002340
:10279000B10701D5002200E001222146009500F09A
:1027A000EDFFF3076FF001016FF0020206D08443E2
:1027B00006D1F8BD0846F8BD1046F8BD0442FCD16C
:1027C000002DF9D0F6E70000EFF3058010B16FF0AF
:1027D000050070470448016811B14FF0FF307047A1
:1027E00001210160002070478400002010B5EFF344
:1027F000058010B16FF0050010BD0848016801297F
:1028000002D04FF0FF3010BD054A002182F8141DA0
:102810000221016000F0C2FE002010BD84000020F3
:102820000BE000E02DE9FF414FEA01034FF0000506
:10283000EFF30581039549BB40B38027182100249D
:102840004AB3166806B1344696691EB13146761E03
:10285000382E02D21679F60703D0002004B0BDE866
:10286000F081566906B1B708D2F808C0BCF1000F74
:102870000DD0D5685C2D18D312693AB136B18DE808
:1028800006103A46214601F018FB03900DE0D66889
:102890005EB912694AB903AACDE90012BAB221465B
:1028A00001F0DEFA012800D003950398D6E7000076
:1028B0002DE9F041134C0F460546E6682068001DDF
:1028C00000F062FC681C07D137B12168BDE8F04117
:1028D0000D48091D00F0B6BC20683544B54245607E
:1028E000216805D2A06BBDE8F041091D00F092BC43
:1028F000606B091D00F08EFCA06A854200D2A562C3
:10290000BDE8F08134000020F40800202DE9F041FA
:10291000054600F0A3FC2D4CA068401CA060206878
:102920002B4F10B1606930B32BE02560A0680128FF
:1029300027D1002606EB860007EB800000F05CFC48
:10294000761C382EF6D3234800F056FC214814306C
:1029500000F052FC1F48283000F04EFC1D483C306F
:1029600000F04AFC1B48503000F046FC19486063F8
:102970001430A06305E02068E96AC06A884200D884
:102980002560606A401C60626864E86A2169884268
:1029900000D9206100EB800007EB8000291D00F0CA
:1029A00051FC00F07BFC606900280CD02068E96ACB
:1029B000C06A884207D208494FF080500860BFF3D0
:1029C0004F8FBFF36F8FBDE8F0810000340000200F
:1029D00044040020A408002004ED00E038B500F015
:1029E0003DFC104C2068C8B90F4800F005FC0E48AB
:1029F000143000F001FC0C48E060143020610A4BF8
:102A00000020F03B009003F1500210210A2000F05A
:102A1000C9FF206010B105A100F0C2FCBDE838403C
:102A200000F03CBC70000020F8090020546D725189
:102A30000000000030B4026C0B46002A0BD0C168C5
:102A40001144C1608468A14201D30168C16030BCF7
:102A50001846FDF7ADBD30BC70472DE9F041856BE0
:102A6000174604460026026C82B1C7B1E068FDF744
:102A70009FFDE168206C091AE1602268914202D250
:102A8000A168081AE060022F16D017E02068A8B9E4
:102A9000A06801F0B5FA06460020A0600EE060686C
:102AA000FDF786FD216C606808446060A16888427B
:102AB00004D32068606001E005B16D1E6D1CA56344
:102AC0003046BDE8F08110B5044690F8590058B181
:102AD00001280CD002280FD0502080F31188BFF3BA
:102AE0004F8FBFF36F8FFEE7206B00F0EBFB2046AC
:102AF000BDE8104000F0E6BB10BD000010484FF4E8
:102B00007051420706D0C01D0D4920F00700411A40
:102B1000C1F570510B4A00230144C2E90003083992
:102B2000183A21F0070111604B600B600B1AC0E9E5
:102B3000001393604FF000405360506170470000F5
:102B4000D8100020A0000020144E154CA6F29C477F
:102B50004FF08058DFF84C9012E000BF00F07EFB91
:102B6000F068C568281D00F00FFBA068401EA0603B
:102B70006068401E606000F091FB2846FFF7A3FFED
:102B800060680028EAD138680128F9D9C9F80080BE
:102B9000BFF34F8FBFF36F8FF2E70000E008002014
:102BA0003400002004ED00E070B51D46049C51B1D6
:102BB000C4F80020C4E90F010121204600F026FFDF
:102BC00084F84C5070BD2460F4E700002DE9F05FFC
:102BD0008846DDE90B941546834691009A460A9E85
:102BE000A522206BFDF729FD6FF00301206B01EB9F
:102BF0008501084420F00707780707D0502080F3AC
:102C00001188BFF34F8FBFF36F8FFEE70025B8F138
:102C1000000F0FD05FF00000221818F8001082F8A3
:102C2000341018F8001011B1401C1028F4D384F8A7
:102C3000435001E084F83450382E00D33726E66242
:102C4000C4E91365201D00F0E2FA04F1180000F059
:102C5000DEFA2461C6F138006462A061656584F81B
:102C6000585052465946384600F064FA2060B9F18F
:102C7000000F01D0C9F80040BDE8F09F30B5114900
:102C800000E011460A688242FBD34B685C1884421C
:102C900003D1406818444860084643681C189442B1
:102CA00009D1084C183C2468A24209D052681A4441
:102CB00042600A6812680260814200D0086030BD3C
:102CC0000460F9E7A000002070B5002441600B4DBE
:102CD0000061914206D8D11A8269914206D2011D43
:102CE000286907E09A4203D2994201D3012403E004
:102CF000011DE86800F08EFA204670BD70000020CB
:102D000010B5044600F0AAFAA06B28B15FF00004E9
:102D100000F0C4FA204610BD0124F9E730B589B0AF
:102D20003C4D6EE00498002806DADDE90601059ABC
:102D300090470498002864DB069C606910B1201D50
:102D400000F022FA03A800F0D7F8024604980A28F7
:102D500057D2DFE800F00505052D334A05052D3370
:102D600094F8280040F0010084F828000599A06933
:102D7000059B01442046FFF7A7FF68B3216A204660
:102D8000884794F8280040073BD50020009005981C
:102D9000A169002342181946204601F03BFAD8B930
:102DA000502080F31188BFF34F8FBFF36F8FFEE782
:102DB00014F8280F20F00100207022E094F8280079
:102DC00040F0010084F828000598A06128B181181E
:102DD00013462046FFF778FF13E0502080F3118858
:102DE000BFF34F8FBFF36F8FFEE794F82800810782
:102DF00003D4204600F066FA03E020F0010084F8D6
:102E00002800002204A9286800F054FF002889D176
:102E100009B030BD700000202DE9FC410F46054689
:102E200000F000FC01A800F067F80446019818B112
:102E300001F05EF9BDE8FC81254EAFB13069006854
:102E4000D0B30027291B3A46306800F0BDFA01F0E4
:102E50004FF90028EED11F494FF080500860BFF3B2
:102E60004F8FBFF36F8FE5E7A542EBD801F040F934
:102E7000F0682746C068C468201D00F085F994F802
:102E80002800410719D5A0692B4641193A4620462A
:102E9000FFF71AFFA8B100200346014600902A461A
:102EA000204601F0B7F960B9502080F31188BFF3D4
:102EB0004F8FBFF36F8FFEE707E020F0010084F82B
:102EC0002800216A20468847B4E70127BAE70000B6
:102ED0007000002004ED00E00648416B096829B14C
:102EE000416BC968C9684968816270474FF0FF311A
:102EF000FAE700003400002070B5054601F016F82E
:102F0000064E0446B068844203D200F009F801205E
:102F100000E0002028602046B46070BD70000020F2
:102F2000F8B5194D20E0C068C4680668201D00F09F
:102F30002BF9216A2046884794F82800400713D5CA
:102F4000A0693044B04206D924616060211DE86860
:102F500000F060F908E00020034601460090324688
:102F6000204601F057F938B1E86801680029DAD144
:102F70002969C5E90310F8BD502080F31188BFF31B
:102F80004F8FBFF36F8FFEE7700000200848406846
:102F9000401C4FF0500080F3118804D0BFF34F8FD6
:102FA000BFF36F8FFEE7BFF34F8FBFF36F8FFEE767
:102FB000A80000200346002012B1994302D07047B8
:102FC0000B42FCD001207047074CE068016841B11A
:102FD000C0680021D0F80000FFF71EFFFFF79EFE3B
:102FE000F3E701210020F7E7700000202DE9F04110
:102FF000044600F033F994F9455004F1240609E041
:10300000606A48B1304601F03BF808B100F02CFA94
:103010006D1E6DB2002DF3DC4FF0FF3684F8456075
:1030200000F03CF900F01AF994F9445004F110074B
:1030300009E0206948B1384601F022F808B100F0F3
:1030400013FA6D1E6DB2002DF3DC84F84460BDE808
:10305000F04100F023B900002DE9F04105460027BA
:1030600000F0E0FA324E306808B9FFF747FD7069AA
:1030700005424ED1C5B3083568070ED005F00700EC
:10308000C0F108000544680707D0502080F311887C
:10309000BFF34F8FBFF36F8FFEE72DB3706885428C
:1030A00037D82348183001460C6801E020460C460A
:1030B0006168A94202D221680029F7D131688C42A7
:1030C00027D007682168016060680837411B102914
:1030D0000FD96019420708D0502080F31188BFF340
:1030E0004F8FBFF36F8FFEE713E041606560FFF71E
:1030F000C5FD61687068401A7060B268904200D285
:10310000B060706901430020C4E90001F068401C10
:10311000F06000F0EDFF780707D0502080F31188B1
:10312000BFF34F8FBFF36F8FFEE73846BDE8F081E6
:103130008800002010B5031F4FF080741C601B1F17
:1031400021F001011960191F044B0B6014390A604A
:10315000091F6FF0020244380A6010BD8D2F00086D
:1031600010B54FF4807206490648FEF7E6FB0548A5
:10317000C06B0068016821F00801016010BD00000B
:1031800004020020B4000020D0E9013201699A60F5
:10319000D0E901235A604A68824201D182684A60BC
:1031A000002202610868401E08600868704700003D
:1031B000044908680A688069D26A0968C2F138025D
:1031C0008A61704734000020034B036003F15C0008
:1031D0000860802010607047200A0020044B0360C4
:1031E00003F15C0008604FF48070106070470000CD
:1031F0007C0C002000F074BA00F108014FF0FF329F
:10320000C0E90112C1600161002101607047002125
:103210000161704730B50B685A1C02D000F10802FA
:1032200002E0026904E02246546825689D42FAD90A
:1032300053684B6099608A60516008610168491C5D
:10324000016030BD42684A6093688B609368596042
:10325000916008610168491C01607047502080F34B
:103260001188BFF34F8FBFF36F8F0A494868401C26
:10327000486001280CD10848006810F0FF0F07D003
:10328000502080F31188BFF34F8FBFF36F8FFEE79D
:1032900070470000A800002004ED00E008494868DD
:1032A00028B1401E486001D180F31188704750203A
:1032B00080F31188BFF34F8FBFF36F8FFEE70000DD
:1032C000A800002070B500282AD0164DA0F10804EF
:1032D00060686969084207D1502080F31188BFF304
:1032E0004F8FBFF36F8FFEE722683AB1502080F313
:1032F0001188BFF34F8FBFF36F8FFEE78843606085
:1033000000F090F960686968084468602046FFF73B
:10331000B5FC2869401C2861BDE8704000F0E8BE9B
:1033200070BD0000880000204FF0E0200021016106
:10333000816105494FF47A720968B1FBF2F1491EC7
:1033400041610721016170473000002010B5FCF792
:10335000EDFF114910280ED300F1E02090F8F003A2
:103360000A78904207D2502080F31188BFF34F8F24
:10337000BFF36F8FFEE709480068896800F4E060DA
:10338000884207D9502080F31188BFF34F8FBFF3D5
:103390006F8FFEE710BD0000A80000200CED00E0DC
:1033A00010B5084B002200BF53F832401CB1521C2C
:1033B000082AF9D310BD43F8321003EBC20148606C
:1033C00010BD00000404002070B515460E460446EA
:1033D000FFF744FF94F944100020491C01D184F800
:1033E000440094F94510491C01D184F84500FFF7C9
:1033F00055FFA06B28B92A46314604F1240000F09D
:1034000051F82046BDE87040FFF7F0BD10B502004E
:1034100014D00F48006B38B1502080F31188BFF3EF
:103420004F8FBFF36F8FFEE700F0FCF800211046CE
:10343000FFF73EFA00F05CFE002807D105494FF087
:1034400080500860BFF34F8FBFF36F8F10BD000037
:103450003400002004ED00E002490A6A0260C968F5
:10346000416070473400002001490120C861704765
:103470003400002010B50C4650B1094909681831D4
:10348000FFF7C8FE2046BDE810400121FFF710BA43
:10349000502080F31188BFF34F8FBFF36F8FFEE78B
:1034A0003400002070B514460D4668B10A49096819
:1034B0001831FFF7C7FE0CB14FF0FF352146284603
:1034C000BDE87040FFF7F4B9502080F31188BFF3D6
:1034D0004F8FBFF36F8FFEE73400002010B5144606
:1034E000030011D01048026BB2B1026841F00041F4
:1034F0009161016818461831FFF7A4FE2046BDE827
:1035000010400121FFF7D4B9502080F31188BFF398
:103510004F8FBFF36F8FFEE7502080F31188BFF30A
:103520004F8FBFF36F8FFEE73400002070B5194D49
:103530002A6BF2B141F000410160C4680CB3FFF79F
:1035400023FE201DFFF720FEE06A2969884200D98A
:103550002861114900EB800001EB8000211DFFF77D
:1035600071FEE06A2968C96A884201D90120E861D0
:1035700070BD502080F31188BFF34F8FBFF36F8F62
:10358000FEE7502080F31188BFF34F8FBFF36F8F9A
:10359000FEE70000340000204404002030B587B06E
:1035A0000024039405AA04A903A80494FFF70CFEC1
:1035B000DDE903010094CDE90110002315A11748AE
:1035C000059A00F07AFC164D0028E8621FD000F042
:1035D000F1FD012809D0401C19D1502080F3118839
:1035E000BFF34F8FBFF36F8FFEE7502080F311883A
:1035F000BFF34F8FBFF36F8F4FF0FF30A8620120F2
:103600006861EC6007B0BDE8304000F03BB907B03E
:1036100030BD000049444C4500000000492B000823
:10362000340000200248016B491C01637047000010
:1036300034000020164810B5016B11B10121C161A1
:1036400010BD0021C1610169124A01E0B9B1491EF2
:1036500001EB810352F82330002BF7D001EB8103FB
:1036600002EB830202F1080453685B685360A342D3
:1036700001D15B685360DA680260016110BD5020BF
:1036800080F31188BFF34F8FBFF36F8FFEE7000009
:10369000340000204404002070B52020FFF7DCFC3B
:1036A000040005D00025201D2560FFF7A5FD257726
:1036B000204670BD38B558B1202104460020009145
:1036C0002060201DFFF798FD01202077204638BD9F
:1036D000502080F31188BFF34F8FBFF36F8FFEE749
:1036E0002DE9F0410027884604000AD05FEA1860FF
:1036F0000FD0502080F31188BFF34F8FBFF36F8F2F
:10370000FEE7502080F31188BFF34F8FBFF36F8F18
:10371000FEE7261D04F10C05FFF784FF2168F06821
:1037200041EA0801216017E0D0E9001601F07F426C
:103730005301236821F07F4102D40B4203D10AE0F8
:1037400031EA030307D1D20100D50F43216841F0CC
:103750000071FFF7EBFE3046A842E5D12068B84380
:10376000206000F0C5FC2068BDE8F08113460A46E1
:103770000146014800F082BDF53100082DE9F0470F
:103780009A46DDF8209090460D4604004FF0000761
:1037900009D0280E0FD0502080F31188BFF34F8F2F
:1037A000BFF36F8FFEE7502080F31188BFF34F8F78
:1037B000BFF36F8FFEE71DB100F0AAFB40B112E02E
:1037C000502080F31188BFF34F8FBFF36F8FFEE758
:1037D000B9F1000F07D0502080F31188BFF34F8F4D
:1037E000BFF36F8FFEE7FFF71DFF2668524629469D
:1037F0003046FFF7DFFB30B1B8F1000F1AD0206878
:10380000A843206016E0B9F1000F13D0B8F1000F03
:1038100001D04FF08077BAF1000F01D047F08067F8
:1038200045EA07014A46201DFFF758FE00F060FCFC
:1038300018B10AE000F05CFC1FE011494FF0805025
:103840000860BFF34F8FBFF36F8FFFF7B1FC0646E1
:10385000800110D4FFF702FD266852462946304603
:10386000FFF7A8FB28B1B8F1000F02D02068A843E9
:103870002060FFF713FD26F07F463046BDE8F08755
:1038800004ED00E01CB537480168374A914207D182
:10389000502080F31188BFF34F8FBFF36F8FFEE787
:1038A00000683149491E884207D1502080F31188B1
:1038B000BFF34F8FBFF36F8FFEE72C49087801905D
:1038C000FF20087008788DF800009DF800009DF832
:1038D000002000F0F000904207D0502080F31188C3
:1038E000BFF34F8FBFF36F8FFEE79DF80000204CB2
:1038F00000F0500020700720A06005E09DF8002037
:1039000052008DF80020401E9DF800201206F5D4CC
:10391000A060032807D0502080F31188BFF34F8F99
:10392000BFF36F8FFEE74FF44070A06001980870FE
:103930000C482030016841F470010160016841F0D9
:1039400070410160FFF7F0FC00206060FCF7B6FCFE
:103950000848016841F040410160FCF79BFC0020F1
:103960001CBD000000ED00E071C20F4100E400E06A
:10397000A800002034EF00E010B5502080F311883B
:10398000BFF34F8FBFF36F8F00F0D6FA18B1044921
:103990004FF080500860002080F3118810BD0000B7
:1039A00004ED00E038B5049D18B153B1CAB181B13E
:1039B00020E0502080F31188BFF34F8FBFF36F8F4B
:1039C000FEE7502080F31188BFF34F8FBFF36F8F56
:1039D000FEE7502080F31188BFF34F8FBFF36F8F46
:1039E000FEE739B1502080F31188BFF34F8FBFF34A
:1039F0006F8FFEE750241C46012384F846302B4687
:103A00000094FFF7D1F8204638BD000070B50D4690
:103A1000040025D0FFF722FCD4E90F20216802FB27
:103A20000011A1600021A163216861600A46D4E908
:103A30000F01401E00FB0121E16021464FF0FF30E5
:103A400001F8440F487004F110008DB1FFF7D4FB6A
:103A500004F12400FFF7D0FBFFF720FC012070BD2C
:103A6000502080F31188BFF34F8FBFF36F8FFEE7B5
:103A700021690029F0D000F003FB0028ECD00449B4
:103A80004FF080500860BFF34F8FBFF36F8FE3E7B5
:103A900004ED00E02DE9FF4782B01D468A464FF055
:103AA0000008040003D0BAF1000F08D011E0502044
:103AB00080F31188BFF34F8FBFF36F8FFEE7206C49
:103AC00038B1502080F31188BFF34F8FBFF36F8F51
:103AD000FEE7022D0AD1E06B012807D0502080F3C9
:103AE0001188BFF34F8FBFF36F8FFEE700F010FA1E
:103AF0003F4F4FF000094FF0805648B9049838B155
:103B0000502080F31188BFF34F8FBFF36F8FFEE714
:103B1000FFF7A4FBA06BE16B884207D3022D05D011
:103B20000498D0B1B8F1000F1AD01EE02A465146D1
:103B30002046FEF792FF616A19B104F1240000F0FB
:103B40009FFA20B13E60BFF34F8FBFF36F8FFFF737
:103B5000A5FB012006B0BDE8F087FFF79FFB22E040
:103B60006846FFF779FC4FF00108FFF797FBFFF776
:103B700059FDFFF773FB94F94400401C01D184F810
:103B8000449094F94500401C01D184F84590FFF71A
:103B900085FB04A9684600F029F930B12046FFF7FB
:103BA00025FA00F0A5FA0020D4E7FFF757FBA06B39
:103BB000E16B884213D1FFF771FB04F11000049907
:103BC000FFF758FC2046FFF711FA00F091FA0028A1
:103BD0009ED13E60BFF34F8FBFF36F8F98E7FFF723
:103BE0005DFB2046FFF702FA00F082FA90E7000042
:103BF00004ED00E02DE9F0471F4690468946040099
:103C000003D0B9F1000F08D011E0502080F31188E3
:103C1000BFF34F8FBFF36F8FFEE7206C38B150209A
:103C200080F31188BFF34F8FBFF36F8FFEE7022F32
:103C30000AD1E06B012807D0502080F31188BFF330
:103C40004F8FBFF36F8FFEE7FFF780FB5020EFF33E
:103C5000118680F31188BFF34F8FBFF36F8FA06B76
:103C6000E16B884206D3022F04D0002086F311882E
:103C7000BDE8F08794F94550A06B3A464946204686
:103C8000FEF7EBFE681C04D06D1C84F84550012043
:103C9000ECE7606A0028FAD004F1240000F0F0F9A3
:103CA0000028F4D0B8F1000FF1D00121C8F80010BD
:103CB000EDE700002DE9F747002683B08A460400AF
:103CC00003D0BAF1000F08D011E0502080F3118822
:103CD000BFF34F8FBFF36F8FFEE7206C38B15020DA
:103CE00080F31188BFF34F8FBFF36F8FFEE700F0B3
:103CF0000FF9DFF8F4804FF000094FF0805748B912
:103D0000059838B1502080F31188BFF34F8FBFF36F
:103D10006F8FFEE7FFF7A2FAA56BC5B151462046AB
:103D2000FEF788FE6D1EA563206950B104F11000F6
:103D300000F0A6F928B1C8F80070BFF34F8FBFF3A9
:103D40006F8FFFF7ABFA012006B0BDE8F08705984A
:103D500008B11EB106E0FFF7A1FA27E06846FFF7B9
:103D60007BFB0126FFF79AFAFFF75CFCFFF776FA78
:103D700094F94400401C01D184F8449094F9450022
:103D8000401C01D184F84590FFF788FA05A96846E0
:103D900000F02CF8002820460AD0FFF727F900F0A1
:103DA000A7F92046FEF7ACFF0028B3D00020CBE7F0
:103DB000FEF7A6FF90B104F124000599FFF75AFB26
:103DC0002046FFF713F900F093F90028A2D1C8F8B4
:103DD0000070BFF34F8FBFF36F8F9BE72046FFF755
:103DE00005F900F085F995E704ED00E02DE9F041D3
:103DF0000C46050011D0C4B1FFF730FA174BDA6852
:103E00006E682068911B471C17D02F681B6A9F4261
:103E100019D0964217D8012410E0502080F3118861
:103E2000BFF34F8FBFF36F8FFEE7502080F31188F1
:103E3000BFF34F8FBFF36F8FFEE70024FFF72EFA1B
:103E40002046BDE8F081884205D9401A2060284606
:103E5000FFF702FBF1E700202060DCE734000020E0
:103E60002DE9FF5F8346DDE90E87994616468A46AF
:103E70009000FFF7F1F805001CD05C20FFF7ECF88C
:103E8000040014D00020256384F85900CDE90240D5
:103E9000CDE900874B46324651465846FEF796FE1E
:103EA0002046FEF733FD012004B0BDE8F09F284610
:103EB000FFF708FA4FF0FF30F6E7F0B585B0DDE91F
:103EC0000B640A9DA6B1DCB15C270097266302262D
:103ED00084F85960002604AFCDE90246CDE90057C9
:103EE000FEF774FE2046FEF711FD049805B0F0BD04
:103EF000502080F31188BFF34F8FBFF36F8FFEE721
:103F0000502080F31188BFF34F8FBFF36F8FFEE710
:103F10000548416919B1006B18B1002070470120B4
:103F20007047022070470000340000200148C0683C
:103F300070470000340000202DE9F0412E4C00278E
:103F4000206B28B1A069401CA0613846BDE8F08113
:103F5000E668761CE66013D1606B006838B15020CB
:103F600080F31188BFF34F8FBFF36F8FFEE7606B55
:103F7000A16B6163A063206A401C2062FEF7ACFF66
:103F8000A06ADFF87880864209D3606B0068A0B130
:103F9000606BC068C5686868864211D2A0622068FC
:103FA000C06A00EB800158F82100012800D90127E0
:103FB000E0690028C9D00127C7E74FF0FF30EDE7DF
:103FC000281DFFF7E1F8A86A18B105F11800FFF7FE
:103FD000DBF8E86A2169884200D9206100EB8001A2
:103FE00008EB8100291DFFF72DF9E86A2168C96AED
:103FF0008842CAD30127C8E73400002044040020C7
:1040000070B504004FF0000133D01B4D2868844286
:1040100007D0502080F31188BFF34F8FBFF36F8F0D
:10402000FEE7206D38B1401E2065E36CE26A9A42DB
:104030001FD040B11DE0502080F31188BFF34F8F97
:10404000BFF36F8FFEE7201DFFF79EF8E06CE06284
:10405000C0F13800A061E06A2969884200D928616E
:10406000064900EB800001EB8000211DFFF7EAF814
:104070000121084670BD00003400002044040020E7
:1040800070B5C068C46854B104F118000646FFF763
:104090007BF8144D286B50B13146134815E0502081
:1040A00080F31188BFF34F8FBFF36F8FFEE7201DA2
:1040B000FFF76AF8E06A2969884200D928610B494C
:1040C00000EB800001EB8000211DFFF7BBF8E06AE8
:1040D0002968C96A884202D90120E86170BD0020C0
:1040E00070BD000034000020CC08002044040020F3
:1040F0002DE9F0472C4D00242746286B38B1FFF7F7
:10410000ADF8286B401E2863286B40B146E0502074
:1041100080F31188BFF34F8FBFF36F8FFEE7A9685D
:10412000224E0120D1B3A6F5916980463068E0B1F6
:10413000F068C46804F11800FFF726F8201DFFF7A7
:1041400023F8E06A2969884200D9286100EB8001E0
:1041500009EB8100211DFFF775F8E06A2968C96A3B
:104160008842E3D3C5F81C80E0E70CB1FEF7B4FE4B
:10417000AC694CB14FEA0806FFF7DEFE00B1EE6114
:10418000641EF9D10020A861E86938B10849012707
:1041900038070860BFF34F8FBFF36F8FFFF77EF8CC
:1041A0003846BDE8F087000034000020CC0800202D
:1041B00004ED00E010B586B0FEF710FC114C20684D
:1041C000B8B100200390049005AA04A903A8FFF742
:1041D00005F8DDE9032102208DE8070000230AA18C
:1041E0000B48059AFFF769FE606010B106B0012028
:1041F00010BD502080F31188BFF34F8FBFF36F8F36
:10420000FEE7000070000020546D722053766300BA
:10421000C92F00082DE9FF411E46134602000A9DE2
:104220004FF0000016D0144C2768002F0FD0CDE9B6
:1042300000130292062917DAFFF76AFE02284FF0F0
:1042400000030FD0002269462068FFF723FC04B06A
:10425000BDE8F081502080F31188BFF34F8FBFF38A
:104260006F8FFEE72A46EEE700233246694638465E
:10427000FFF7C0FCEBE70000700000201FB51C46F4
:104280006FF00103CDE90030CDE9021204480023AC
:10429000224669460068FFF7ADFC04B010BD00007F
:1042A000700000204FF04070E1EE100A70476D6121
:1042B000696E66756E6300006C43000800000000C4
:1042C00000000000000000000000000000020000EC
:1042D000180000000000000000000000604300081B
:1042E00000000000000000000000000000000000CE
:1042F00000020000080000000000000000000000B4
:10430000544300080000000000000000000000000E
:104310000000000000020000080000000000000093
:1043200000000000784300080000000000000000CA
:104330000000000000061016000610160000000025
:104340000000000001020304060708090000000045
:1043500001020304554152545F5461736B00000025
:104360006D61696E5461736B000000006465666185
:10437000756C745461736B00556172744576656E2B
:1043800074000000A443000800000020B4000000F6
:104390000002000858440008B400002084520000C5
:1043A0001C020008030000000000000000000000E4
:1043B00000000000000000000000000000000000FD
:1043C00000000000000000000100000010000000DC
:1043D000000000000024F4000000000000000000C5
:1043E00000000000000000000000000000000000CD
:1043F00000000000000000000000000000000000BD
:1044000000000000000000000000000000000000AC
:10441000000000000000000000000000000000009C
:10442000000000000000000000000000000000008C
:10443000000000000000000000000000000000007C
:10444000000000000000000000000000000000006C
:08445000AAAAAAAA00000000BC
:04000005080001C529
:00000001FF
